{
  "contractName": "ERC721Connector",
  "abi": [
    {
      "inputs": [
        {
          "internalType": "string",
          "name": "name",
          "type": "string"
        },
        {
          "internalType": "string",
          "name": "symbol",
          "type": "string"
        }
      ],
      "stateMutability": "nonpayable",
      "type": "constructor"
    },
    {
      "anonymous": false,
      "inputs": [
        {
          "indexed": true,
          "internalType": "address",
          "name": "from",
          "type": "address"
        },
        {
          "indexed": true,
          "internalType": "address",
          "name": "to",
          "type": "address"
        },
        {
          "indexed": true,
          "internalType": "uint256",
          "name": "tokenId",
          "type": "uint256"
        }
      ],
      "name": "Transfer",
      "type": "event"
    },
    {
      "inputs": [
        {
          "internalType": "address",
          "name": "_from",
          "type": "address"
        },
        {
          "internalType": "address",
          "name": "_to",
          "type": "address"
        },
        {
          "internalType": "uint256",
          "name": "_tokenId",
          "type": "uint256"
        }
      ],
      "name": "_transferFrom",
      "outputs": [],
      "stateMutability": "payable",
      "type": "function"
    },
    {
      "inputs": [
        {
          "internalType": "address",
          "name": "_owner",
          "type": "address"
        }
      ],
      "name": "balanceOf",
      "outputs": [
        {
          "internalType": "uint256",
          "name": "",
          "type": "uint256"
        }
      ],
      "stateMutability": "view",
      "type": "function"
    },
    {
      "inputs": [],
      "name": "name",
      "outputs": [
        {
          "internalType": "string",
          "name": "",
          "type": "string"
        }
      ],
      "stateMutability": "view",
      "type": "function"
    },
    {
      "inputs": [
        {
          "internalType": "uint256",
          "name": "_tokenId",
          "type": "uint256"
        }
      ],
      "name": "ownerOf",
      "outputs": [
        {
          "internalType": "address",
          "name": "",
          "type": "address"
        }
      ],
      "stateMutability": "view",
      "type": "function"
    },
    {
      "inputs": [],
      "name": "symbol",
      "outputs": [
        {
          "internalType": "string",
          "name": "",
          "type": "string"
        }
      ],
      "stateMutability": "view",
      "type": "function"
    },
    {
      "inputs": [
        {
          "internalType": "uint256",
          "name": "_index",
          "type": "uint256"
        }
      ],
      "name": "tokenByIndex",
      "outputs": [
        {
          "internalType": "uint256",
          "name": "",
          "type": "uint256"
        }
      ],
      "stateMutability": "view",
      "type": "function"
    },
    {
      "inputs": [
        {
          "internalType": "address",
          "name": "_owner",
          "type": "address"
        },
        {
          "internalType": "uint256",
          "name": "_index",
          "type": "uint256"
        }
      ],
      "name": "tokenOfOwnerByIndex",
      "outputs": [
        {
          "internalType": "uint256",
          "name": "",
          "type": "uint256"
        }
      ],
      "stateMutability": "view",
      "type": "function"
    },
    {
      "inputs": [],
      "name": "totalSupply",
      "outputs": [
        {
          "internalType": "uint256",
          "name": "",
          "type": "uint256"
        }
      ],
      "stateMutability": "view",
      "type": "function"
    },
    {
      "inputs": [
        {
          "internalType": "address",
          "name": "_from",
          "type": "address"
        },
        {
          "internalType": "address",
          "name": "_to",
          "type": "address"
        },
        {
          "internalType": "uint256",
          "name": "_tokenId",
          "type": "uint256"
        }
      ],
      "name": "transferFrom",
      "outputs": [],
      "stateMutability": "payable",
      "type": "function"
    }
  ],
  "bytecode": "0x60806040523480156200001157600080fd5b50604051620012bd380380620012bd8339818101604052810190620000379190620002c2565b818181600090805190602001906200005192919062000075565b5080600190805190602001906200006a92919062000075565b5050505050620003ac565b828054620000839062000376565b90600052602060002090601f016020900481019282620000a75760008555620000f3565b82601f10620000c257805160ff1916838001178555620000f3565b82800160010185558215620000f3579182015b82811115620000f2578251825591602001919060010190620000d5565b5b50905062000102919062000106565b5090565b5b808211156200012157600081600090555060010162000107565b5090565b6000604051905090565b600080fd5b600080fd5b600080fd5b600080fd5b6000601f19601f8301169050919050565b7f4e487b7100000000000000000000000000000000000000000000000000000000600052604160045260246000fd5b6200018e8262000143565b810181811067ffffffffffffffff82111715620001b057620001af62000154565b5b80604052505050565b6000620001c562000125565b9050620001d3828262000183565b919050565b600067ffffffffffffffff821115620001f657620001f562000154565b5b620002018262000143565b9050602081019050919050565b60005b838110156200022e57808201518184015260208101905062000211565b838111156200023e576000848401525b50505050565b60006200025b6200025584620001d8565b620001b9565b9050828152602081018484840111156200027a57620002796200013e565b5b620002878482856200020e565b509392505050565b600082601f830112620002a757620002a662000139565b5b8151620002b984826020860162000244565b91505092915050565b60008060408385031215620002dc57620002db6200012f565b5b600083015167ffffffffffffffff811115620002fd57620002fc62000134565b5b6200030b858286016200028f565b925050602083015167ffffffffffffffff8111156200032f576200032e62000134565b5b6200033d858286016200028f565b9150509250929050565b7f4e487b7100000000000000000000000000000000000000000000000000000000600052602260045260246000fd5b600060028204905060018216806200038f57607f821691505b60208210811415620003a657620003a562000347565b5b50919050565b610f0180620003bc6000396000f3fe6080604052600436106100865760003560e01c80634f6ccce7116100595780634f6ccce71461013a5780636352211e1461017757806370a08231146101b457806395d89b41146101f1578063cb7125351461021c57610086565b806306fdde031461008b57806318160ddd146100b657806323b872dd146100e15780632f745c59146100fd575b600080fd5b34801561009757600080fd5b506100a0610238565b6040516100ad91906108d8565b60405180910390f35b3480156100c257600080fd5b506100cb6102ca565b6040516100d89190610913565b60405180910390f35b6100fb60048036038101906100f691906109bd565b6102d7565b005b34801561010957600080fd5b50610124600480360381019061011f9190610a10565b6102e7565b6040516101319190610913565b60405180910390f35b34801561014657600080fd5b50610161600480360381019061015c9190610a50565b610397565b60405161016e9190610913565b60405180910390f35b34801561018357600080fd5b5061019e60048036038101906101999190610a50565b6103fd565b6040516101ab9190610a8c565b60405180910390f35b3480156101c057600080fd5b506101db60048036038101906101d69190610aa7565b6104af565b6040516101e89190610913565b60405180910390f35b3480156101fd57600080fd5b50610206610567565b60405161021391906108d8565b60405180910390f35b610236600480360381019061023191906109bd565b6105f9565b005b60606000805461024790610b03565b80601f016020809104026020016040519081016040528092919081815260200182805461027390610b03565b80156102c05780601f10610295576101008083540402835291602001916102c0565b820191906000526020600020905b8154815290600101906020018083116102a357829003601f168201915b5050505050905090565b6000600580549050905090565b6102e28383836105f9565b505050565b60006102f2836104af565b8210610333576040517f08c379a000000000000000000000000000000000000000000000000000000000815260040161032a90610b81565b60405180910390fd5b600760008473ffffffffffffffffffffffffffffffffffffffff1673ffffffffffffffffffffffffffffffffffffffff168152602001908152602001600020828154811061038457610383610ba1565b5b9060005260206000200154905092915050565b60006103a16102ca565b82106103e2576040517f08c379a00000000000000000000000000000000000000000000000000000000081526004016103d990610c1c565b60405180910390fd5b60066000838152602001908152602001600020549050919050565b6000806002600084815260200190815260200160002060009054906101000a900473ffffffffffffffffffffffffffffffffffffffff169050600073ffffffffffffffffffffffffffffffffffffffff168173ffffffffffffffffffffffffffffffffffffffff1614156104a6576040517f08c379a000000000000000000000000000000000000000000000000000000000815260040161049d90610c88565b60405180910390fd5b80915050919050565b60008073ffffffffffffffffffffffffffffffffffffffff168273ffffffffffffffffffffffffffffffffffffffff161415610520576040517f08c379a000000000000000000000000000000000000000000000000000000000815260040161051790610cf4565b60405180910390fd5b600360008373ffffffffffffffffffffffffffffffffffffffff1673ffffffffffffffffffffffffffffffffffffffff168152602001908152602001600020549050919050565b60606001805461057690610b03565b80601f01602080910402602001604051908101604052809291908181526020018280546105a290610b03565b80156105ef5780601f106105c4576101008083540402835291602001916105ef565b820191906000526020600020905b8154815290600101906020018083116105d257829003601f168201915b5050505050905090565b600073ffffffffffffffffffffffffffffffffffffffff168273ffffffffffffffffffffffffffffffffffffffff161415610669576040517f08c379a000000000000000000000000000000000000000000000000000000000815260040161066090610d86565b60405180910390fd5b8273ffffffffffffffffffffffffffffffffffffffff16610689826103fd565b73ffffffffffffffffffffffffffffffffffffffff16146106df576040517f08c379a00000000000000000000000000000000000000000000000000000000081526004016106d690610df2565b60405180910390fd5b6001600360008573ffffffffffffffffffffffffffffffffffffffff1673ffffffffffffffffffffffffffffffffffffffff168152602001908152602001600020600082825461072f9190610e41565b925050819055506001600360008473ffffffffffffffffffffffffffffffffffffffff1673ffffffffffffffffffffffffffffffffffffffff16815260200190815260200160002060008282546107869190610e75565b92505081905550816002600083815260200190815260200160002060006101000a81548173ffffffffffffffffffffffffffffffffffffffff021916908373ffffffffffffffffffffffffffffffffffffffff160217905550808273ffffffffffffffffffffffffffffffffffffffff168473ffffffffffffffffffffffffffffffffffffffff167fddf252ad1be2c89b69c2b068fc378daa952ba7f163c4a11628f55a4df523b3ef60405160405180910390a4505050565b600081519050919050565b600082825260208201905092915050565b60005b8381101561087957808201518184015260208101905061085e565b83811115610888576000848401525b50505050565b6000601f19601f8301169050919050565b60006108aa8261083f565b6108b4818561084a565b93506108c481856020860161085b565b6108cd8161088e565b840191505092915050565b600060208201905081810360008301526108f2818461089f565b905092915050565b6000819050919050565b61090d816108fa565b82525050565b60006020820190506109286000830184610904565b92915050565b600080fd5b600073ffffffffffffffffffffffffffffffffffffffff82169050919050565b600061095e82610933565b9050919050565b61096e81610953565b811461097957600080fd5b50565b60008135905061098b81610965565b92915050565b61099a816108fa565b81146109a557600080fd5b50565b6000813590506109b781610991565b92915050565b6000806000606084860312156109d6576109d561092e565b5b60006109e48682870161097c565b93505060206109f58682870161097c565b9250506040610a06868287016109a8565b9150509250925092565b60008060408385031215610a2757610a2661092e565b5b6000610a358582860161097c565b9250506020610a46858286016109a8565b9150509250929050565b600060208284031215610a6657610a6561092e565b5b6000610a74848285016109a8565b91505092915050565b610a8681610953565b82525050565b6000602082019050610aa16000830184610a7d565b92915050565b600060208284031215610abd57610abc61092e565b5b6000610acb8482850161097c565b91505092915050565b7f4e487b7100000000000000000000000000000000000000000000000000000000600052602260045260246000fd5b60006002820490506001821680610b1b57607f821691505b60208210811415610b2f57610b2e610ad4565b5b50919050565b7f4f776e657220696e646578206973206f7574206f6620626f756e647300000000600082015250565b6000610b6b601c8361084a565b9150610b7682610b35565b602082019050919050565b60006020820190508181036000830152610b9a81610b5e565b9050919050565b7f4e487b7100000000000000000000000000000000000000000000000000000000600052603260045260246000fd5b7f476c6f62616c20696e646578206f7574206f6620626f756e6473000000000000600082015250565b6000610c06601a8361084a565b9150610c1182610bd0565b602082019050919050565b60006020820190508181036000830152610c3581610bf9565b9050919050565b7f4164647265737320646f6573206e6f7420657869737400000000000000000000600082015250565b6000610c7260168361084a565b9150610c7d82610c3c565b602082019050919050565b60006020820190508181036000830152610ca181610c65565b9050919050565b7f416464726573732063616e6e6f742062652061207a65726f2061646472657373600082015250565b6000610cde60208361084a565b9150610ce982610ca8565b602082019050919050565b60006020820190508181036000830152610d0d81610cd1565b9050919050565b7f4572726f202d20455243373231205472616e7366657220746f207a65726f206160008201527f6464726573730000000000000000000000000000000000000000000000000000602082015250565b6000610d7060268361084a565b9150610d7b82610d14565b604082019050919050565b60006020820190508181036000830152610d9f81610d63565b9050919050565b7f796f7520646f206e6f74206f776e2074686973204e4654000000000000000000600082015250565b6000610ddc60178361084a565b9150610de782610da6565b602082019050919050565b60006020820190508181036000830152610e0b81610dcf565b9050919050565b7f4e487b7100000000000000000000000000000000000000000000000000000000600052601160045260246000fd5b6000610e4c826108fa565b9150610e57836108fa565b925082821015610e6a57610e69610e12565b5b828203905092915050565b6000610e80826108fa565b9150610e8b836108fa565b9250827fffffffffffffffffffffffffffffffffffffffffffffffffffffffffffffffff03821115610ec057610ebf610e12565b5b82820190509291505056fea264697066735822122016e30c211a2f90d16983d6d377bc198e5e7373799534fc11df9e1598a8bdda3d64736f6c634300080c0033",
  "immutableReferences": {},
  "source": "// SPDX-License-Identifier: MIT\npragma solidity ^0.8.0;\n\nimport './ERC721Metadata.sol';\nimport './ERC721Enumerable.sol';\n\ncontract ERC721Connector is ERC721Metadata, ERC721Enumerable {\n\n    //we deploy connector right away, carry metadata over!\n    constructor(string memory name, string memory symbol) ERC721Metadata(name, symbol){\n    \n    }\n}",
  "sourcePath": "/Users/tsairenkun/Desktop/Blockchain_sol/nft-marketplace-starter-kit-main 2/src/contracts/ERC721Connector.sol",
  "compiler": {
    "name": "solc",
    "version": "0.8.12+commit.f00d7308.Emscripten.clang"
  },
  "schemaVersion": "3.4.4",
  "updatedAt": "2022-02-21T13:54:44.966Z",
  "devdoc": {
    "kind": "dev",
    "methods": {
      "_transferFrom(address,address,uint256)": {
        "details": "Throws unless `msg.sender` is the current owner, an authorized  operator, or the approved address for this NFT. Throws if `_from` is  not the current owner. Throws if `_to` is the zero address. Throws if  `_tokenId` is not a valid NFT.",
        "params": {
          "_from": "The current owner of the NFT",
          "_to": "The new owner",
          "_tokenId": "The NFT to transfer"
        }
      }
    },
    "version": 1
  },
  "userdoc": {
    "kind": "user",
    "methods": {
      "_transferFrom(address,address,uint256)": {
        "notice": "Transfer ownership of an NFT -- THE CALLER IS RESPONSIBLE  TO CONFIRM THAT `_to` IS CAPABLE OF RECEIVING NFTS OR ELSE  THEY MAY BE PERMANENTLY LOST"
      }
    },
    "version": 1
  }
}