{
  "contractName": "ERC721Enumerable",
  "abi": [
    {
      "anonymous": false,
      "inputs": [
        {
          "indexed": true,
          "internalType": "address",
          "name": "from",
          "type": "address"
        },
        {
          "indexed": true,
          "internalType": "address",
          "name": "to",
          "type": "address"
        },
        {
          "indexed": true,
          "internalType": "uint256",
          "name": "tokenId",
          "type": "uint256"
        }
      ],
      "name": "Transfer",
      "type": "event"
    },
    {
      "inputs": [
        {
          "internalType": "address",
          "name": "_from",
          "type": "address"
        },
        {
          "internalType": "address",
          "name": "_to",
          "type": "address"
        },
        {
          "internalType": "uint256",
          "name": "_tokenId",
          "type": "uint256"
        }
      ],
      "name": "_transferFrom",
      "outputs": [],
      "stateMutability": "payable",
      "type": "function"
    },
    {
      "inputs": [
        {
          "internalType": "address",
          "name": "_owner",
          "type": "address"
        }
      ],
      "name": "balanceOf",
      "outputs": [
        {
          "internalType": "uint256",
          "name": "",
          "type": "uint256"
        }
      ],
      "stateMutability": "view",
      "type": "function"
    },
    {
      "inputs": [
        {
          "internalType": "uint256",
          "name": "_tokenId",
          "type": "uint256"
        }
      ],
      "name": "ownerOf",
      "outputs": [
        {
          "internalType": "address",
          "name": "",
          "type": "address"
        }
      ],
      "stateMutability": "view",
      "type": "function"
    },
    {
      "inputs": [
        {
          "internalType": "address",
          "name": "_from",
          "type": "address"
        },
        {
          "internalType": "address",
          "name": "_to",
          "type": "address"
        },
        {
          "internalType": "uint256",
          "name": "_tokenId",
          "type": "uint256"
        }
      ],
      "name": "transferFrom",
      "outputs": [],
      "stateMutability": "payable",
      "type": "function"
    },
    {
      "inputs": [
        {
          "internalType": "uint256",
          "name": "_index",
          "type": "uint256"
        }
      ],
      "name": "tokenByIndex",
      "outputs": [
        {
          "internalType": "uint256",
          "name": "",
          "type": "uint256"
        }
      ],
      "stateMutability": "view",
      "type": "function"
    },
    {
      "inputs": [
        {
          "internalType": "address",
          "name": "_owner",
          "type": "address"
        },
        {
          "internalType": "uint256",
          "name": "_index",
          "type": "uint256"
        }
      ],
      "name": "tokenOfOwnerByIndex",
      "outputs": [
        {
          "internalType": "uint256",
          "name": "",
          "type": "uint256"
        }
      ],
      "stateMutability": "view",
      "type": "function"
    },
    {
      "inputs": [],
      "name": "totalSupply",
      "outputs": [
        {
          "internalType": "uint256",
          "name": "",
          "type": "uint256"
        }
      ],
      "stateMutability": "view",
      "type": "function"
    }
  ],
  "bytecode": "0x608060405234801561001057600080fd5b50610c62806100206000396000f3fe6080604052600436106100705760003560e01c80634f6ccce71161004e5780634f6ccce7146100f95780636352211e1461013657806370a0823114610173578063cb712535146101b057610070565b806318160ddd1461007557806323b872dd146100a05780632f745c59146100bc575b600080fd5b34801561008157600080fd5b5061008a6101cc565b60405161009791906106c4565b60405180910390f35b6100ba60048036038101906100b5919061076e565b6101d9565b005b3480156100c857600080fd5b506100e360048036038101906100de91906107c1565b6101e9565b6040516100f091906106c4565b60405180910390f35b34801561010557600080fd5b50610120600480360381019061011b9190610801565b610299565b60405161012d91906106c4565b60405180910390f35b34801561014257600080fd5b5061015d60048036038101906101589190610801565b6102ff565b60405161016a919061083d565b60405180910390f35b34801561017f57600080fd5b5061019a60048036038101906101959190610858565b6103b0565b6040516101a791906106c4565b60405180910390f35b6101ca60048036038101906101c5919061076e565b610468565b005b6000600380549050905090565b6101e4838383610468565b505050565b60006101f4836103b0565b8210610235576040517f08c379a000000000000000000000000000000000000000000000000000000000815260040161022c906108e2565b60405180910390fd5b600560008473ffffffffffffffffffffffffffffffffffffffff1673ffffffffffffffffffffffffffffffffffffffff168152602001908152602001600020828154811061028657610285610902565b5b9060005260206000200154905092915050565b60006102a36101cc565b82106102e4576040517f08c379a00000000000000000000000000000000000000000000000000000000081526004016102db9061097d565b60405180910390fd5b60046000838152602001908152602001600020549050919050565b60008060008084815260200190815260200160002060009054906101000a900473ffffffffffffffffffffffffffffffffffffffff169050600073ffffffffffffffffffffffffffffffffffffffff168173ffffffffffffffffffffffffffffffffffffffff1614156103a7576040517f08c379a000000000000000000000000000000000000000000000000000000000815260040161039e906109e9565b60405180910390fd5b80915050919050565b60008073ffffffffffffffffffffffffffffffffffffffff168273ffffffffffffffffffffffffffffffffffffffff161415610421576040517f08c379a000000000000000000000000000000000000000000000000000000000815260040161041890610a55565b60405180910390fd5b600160008373ffffffffffffffffffffffffffffffffffffffff1673ffffffffffffffffffffffffffffffffffffffff168152602001908152602001600020549050919050565b600073ffffffffffffffffffffffffffffffffffffffff168273ffffffffffffffffffffffffffffffffffffffff1614156104d8576040517f08c379a00000000000000000000000000000000000000000000000000000000081526004016104cf90610ae7565b60405180910390fd5b8273ffffffffffffffffffffffffffffffffffffffff166104f8826102ff565b73ffffffffffffffffffffffffffffffffffffffff161461054e576040517f08c379a000000000000000000000000000000000000000000000000000000000815260040161054590610b53565b60405180910390fd5b60018060008573ffffffffffffffffffffffffffffffffffffffff1673ffffffffffffffffffffffffffffffffffffffff168152602001908152602001600020600082825461059d9190610ba2565b9250508190555060018060008473ffffffffffffffffffffffffffffffffffffffff1673ffffffffffffffffffffffffffffffffffffffff16815260200190815260200160002060008282546105f39190610bd6565b925050819055508160008083815260200190815260200160002060006101000a81548173ffffffffffffffffffffffffffffffffffffffff021916908373ffffffffffffffffffffffffffffffffffffffff160217905550808273ffffffffffffffffffffffffffffffffffffffff168473ffffffffffffffffffffffffffffffffffffffff167fddf252ad1be2c89b69c2b068fc378daa952ba7f163c4a11628f55a4df523b3ef60405160405180910390a4505050565b6000819050919050565b6106be816106ab565b82525050565b60006020820190506106d960008301846106b5565b92915050565b600080fd5b600073ffffffffffffffffffffffffffffffffffffffff82169050919050565b600061070f826106e4565b9050919050565b61071f81610704565b811461072a57600080fd5b50565b60008135905061073c81610716565b92915050565b61074b816106ab565b811461075657600080fd5b50565b60008135905061076881610742565b92915050565b600080600060608486031215610787576107866106df565b5b60006107958682870161072d565b93505060206107a68682870161072d565b92505060406107b786828701610759565b9150509250925092565b600080604083850312156107d8576107d76106df565b5b60006107e68582860161072d565b92505060206107f785828601610759565b9150509250929050565b600060208284031215610817576108166106df565b5b600061082584828501610759565b91505092915050565b61083781610704565b82525050565b6000602082019050610852600083018461082e565b92915050565b60006020828403121561086e5761086d6106df565b5b600061087c8482850161072d565b91505092915050565b600082825260208201905092915050565b7f4f776e657220696e646578206973206f7574206f6620626f756e647300000000600082015250565b60006108cc601c83610885565b91506108d782610896565b602082019050919050565b600060208201905081810360008301526108fb816108bf565b9050919050565b7f4e487b7100000000000000000000000000000000000000000000000000000000600052603260045260246000fd5b7f476c6f62616c20696e646578206f7574206f6620626f756e6473000000000000600082015250565b6000610967601a83610885565b915061097282610931565b602082019050919050565b600060208201905081810360008301526109968161095a565b9050919050565b7f4164647265737320646f6573206e6f7420657869737400000000000000000000600082015250565b60006109d3601683610885565b91506109de8261099d565b602082019050919050565b60006020820190508181036000830152610a02816109c6565b9050919050565b7f416464726573732063616e6e6f742062652061207a65726f2061646472657373600082015250565b6000610a3f602083610885565b9150610a4a82610a09565b602082019050919050565b60006020820190508181036000830152610a6e81610a32565b9050919050565b7f4572726f202d20455243373231205472616e7366657220746f207a65726f206160008201527f6464726573730000000000000000000000000000000000000000000000000000602082015250565b6000610ad1602683610885565b9150610adc82610a75565b604082019050919050565b60006020820190508181036000830152610b0081610ac4565b9050919050565b7f796f7520646f206e6f74206f776e2074686973204e4654000000000000000000600082015250565b6000610b3d601783610885565b9150610b4882610b07565b602082019050919050565b60006020820190508181036000830152610b6c81610b30565b9050919050565b7f4e487b7100000000000000000000000000000000000000000000000000000000600052601160045260246000fd5b6000610bad826106ab565b9150610bb8836106ab565b925082821015610bcb57610bca610b73565b5b828203905092915050565b6000610be1826106ab565b9150610bec836106ab565b9250827fffffffffffffffffffffffffffffffffffffffffffffffffffffffffffffffff03821115610c2157610c20610b73565b5b82820190509291505056fea264697066735822122049d51c33b74bc812e32c1c3dd9012154955e195c9a6906a93ff2cbd2e09d296e64736f6c634300080c0033",
  "immutableReferences": {},
  "source": "// SPDX-License-Identifier: MIT\npragma solidity ^0.8.0;\n\nimport './ERC721.sol';\n\ncontract ERC721Enumerable is ERC721 {\n\n    uint256[] private _allTokens;\n\n    //mapping from tokenId to position in _allTokens array\n    mapping(uint256 => uint256) private _allTokensIndex;\n\n    //mapping of owner to list of all owner token ids\n    mapping(address => uint256[])private _ownedTokens;\n\n    //mapping from token ID to index of the owner tokens list\n    mapping(uint256 => uint256) private _ownedTokensIndex;\n\n    function _mint(address to, uint256 tokenId) internal override(ERC721){\n        super._mint(to, tokenId);\n        _addTokensToAllTokenEnumeration(tokenId);\n        _addTokensToOwnerEnumeration(to, tokenId);\n    }\n\n    //add tokens to the _alltokens arrat and set position of the token\n    function _addTokensToAllTokenEnumeration(uint256 tokenId) private {\n        _allTokensIndex[tokenId] = _allTokens.length;\n        _allTokens.push(tokenId);\n    }\n\n    function _addTokensToOwnerEnumeration(address to, uint256 tokenId) private {\n        //add address and token id to the _ownertokens\n        _ownedTokens[to].push(tokenId);\n        //ownedtokensindex tokenId set to address of ownedtokens position\n        _ownedTokensIndex[tokenId] = _ownedTokens[to].length;\n        //we want to execute the function with minting\n    }\n\n    // @notice Count NFTs tracked by this contract\n    // @return A count of valid NFTs tracked by this contract, where each one of\n    //  them has an assigned and queryable owner not equal to the zero address\n\n    // @notice Enumerate valid NFTs\n    // @dev Throws if `_index` >= `totalSupply()`.\n    // @param _index A counter less than `totalSupply()`\n    // @return The token identifier for the `_index`th NFT,\n    //  (sort order not specified)\n    function tokenByIndex(uint256 _index) public view returns (uint256){\n        require(_index < totalSupply(), \"Global index out of bounds\");\n        return _allTokensIndex[_index];\n    }\n    // @notice Enumerate NFTs assigned to an owner\n    // @dev Throws if `_index` >= `balanceOf(_owner)` or if\n    //  `_owner` is the zero address, representing invalid NFTs.\n    // @param _owner An address where we are interested in NFTs owned by them\n    // @param _index A counter less than `balanceOf(_owner)`\n    // @return The token identifier for the `_index`th NFT assigned to `_owner`,\n    //   (sort order not specified)\n    function tokenOfOwnerByIndex(address _owner, uint256 _index) external view returns (uint256){\n        require(_index < balanceOf(_owner), \"Owner index is out of bounds\");\n        return _ownedTokens[_owner][_index]; \n    }\n\n    //return the total supply of all _allTokens array\n    function totalSupply() public view returns (uint256){\n        return _allTokens.length;\n    }\n\n   \n}",
  "sourcePath": "/Users/tsairenkun/Desktop/Blockchain_sol/nft-marketplace-starter-kit-main 2/src/contracts/ERC721Enumerable.sol",
  "compiler": {
    "name": "solc",
    "version": "0.8.12+commit.f00d7308.Emscripten.clang"
  },
  "schemaVersion": "3.4.4",
  "updatedAt": "2022-02-21T13:54:44.970Z",
  "devdoc": {
    "kind": "dev",
    "methods": {
      "_transferFrom(address,address,uint256)": {
        "details": "Throws unless `msg.sender` is the current owner, an authorized  operator, or the approved address for this NFT. Throws if `_from` is  not the current owner. Throws if `_to` is the zero address. Throws if  `_tokenId` is not a valid NFT.",
        "params": {
          "_from": "The current owner of the NFT",
          "_to": "The new owner",
          "_tokenId": "The NFT to transfer"
        }
      }
    },
    "version": 1
  },
  "userdoc": {
    "kind": "user",
    "methods": {
      "_transferFrom(address,address,uint256)": {
        "notice": "Transfer ownership of an NFT -- THE CALLER IS RESPONSIBLE  TO CONFIRM THAT `_to` IS CAPABLE OF RECEIVING NFTS OR ELSE  THEY MAY BE PERMANENTLY LOST"
      }
    },
    "version": 1
  }
}