{
  "contractName": "ERC721",
  "abi": [
    {
      "anonymous": false,
      "inputs": [
        {
          "indexed": true,
          "internalType": "address",
          "name": "from",
          "type": "address"
        },
        {
          "indexed": true,
          "internalType": "address",
          "name": "to",
          "type": "address"
        },
        {
          "indexed": true,
          "internalType": "uint256",
          "name": "tokenId",
          "type": "uint256"
        }
      ],
      "name": "Transfer",
      "type": "event"
    },
    {
      "inputs": [
        {
          "internalType": "address",
          "name": "_owner",
          "type": "address"
        }
      ],
      "name": "balanceOf",
      "outputs": [
        {
          "internalType": "uint256",
          "name": "",
          "type": "uint256"
        }
      ],
      "stateMutability": "view",
      "type": "function"
    },
    {
      "inputs": [
        {
          "internalType": "uint256",
          "name": "_tokenId",
          "type": "uint256"
        }
      ],
      "name": "ownerOf",
      "outputs": [
        {
          "internalType": "address",
          "name": "",
          "type": "address"
        }
      ],
      "stateMutability": "view",
      "type": "function"
    },
    {
      "inputs": [
        {
          "internalType": "address",
          "name": "_from",
          "type": "address"
        },
        {
          "internalType": "address",
          "name": "_to",
          "type": "address"
        },
        {
          "internalType": "uint256",
          "name": "_tokenId",
          "type": "uint256"
        }
      ],
      "name": "_transferFrom",
      "outputs": [],
      "stateMutability": "payable",
      "type": "function"
    },
    {
      "inputs": [
        {
          "internalType": "address",
          "name": "_from",
          "type": "address"
        },
        {
          "internalType": "address",
          "name": "_to",
          "type": "address"
        },
        {
          "internalType": "uint256",
          "name": "_tokenId",
          "type": "uint256"
        }
      ],
      "name": "transferFrom",
      "outputs": [],
      "stateMutability": "payable",
      "type": "function"
    }
  ],
  "bytecode": "0x608060405234801561001057600080fd5b50610922806100206000396000f3fe60806040526004361061003f5760003560e01c806323b872dd146100445780636352211e1461006057806370a082311461009d578063cb712535146100da575b600080fd5b61005e6004803603810190610059919061054b565b6100f6565b005b34801561006c57600080fd5b506100876004803603810190610082919061059e565b610106565b60405161009491906105da565b60405180910390f35b3480156100a957600080fd5b506100c460048036038101906100bf91906105f5565b6101b7565b6040516100d19190610631565b60405180910390f35b6100f460048036038101906100ef919061054b565b61026f565b005b61010183838361026f565b505050565b60008060008084815260200190815260200160002060009054906101000a900473ffffffffffffffffffffffffffffffffffffffff169050600073ffffffffffffffffffffffffffffffffffffffff168173ffffffffffffffffffffffffffffffffffffffff1614156101ae576040517f08c379a00000000000000000000000000000000000000000000000000000000081526004016101a5906106a9565b60405180910390fd5b80915050919050565b60008073ffffffffffffffffffffffffffffffffffffffff168273ffffffffffffffffffffffffffffffffffffffff161415610228576040517f08c379a000000000000000000000000000000000000000000000000000000000815260040161021f90610715565b60405180910390fd5b600160008373ffffffffffffffffffffffffffffffffffffffff1673ffffffffffffffffffffffffffffffffffffffff168152602001908152602001600020549050919050565b600073ffffffffffffffffffffffffffffffffffffffff168273ffffffffffffffffffffffffffffffffffffffff1614156102df576040517f08c379a00000000000000000000000000000000000000000000000000000000081526004016102d6906107a7565b60405180910390fd5b8273ffffffffffffffffffffffffffffffffffffffff166102ff82610106565b73ffffffffffffffffffffffffffffffffffffffff1614610355576040517f08c379a000000000000000000000000000000000000000000000000000000000815260040161034c90610813565b60405180910390fd5b60018060008573ffffffffffffffffffffffffffffffffffffffff1673ffffffffffffffffffffffffffffffffffffffff16815260200190815260200160002060008282546103a49190610862565b9250508190555060018060008473ffffffffffffffffffffffffffffffffffffffff1673ffffffffffffffffffffffffffffffffffffffff16815260200190815260200160002060008282546103fa9190610896565b925050819055508160008083815260200190815260200160002060006101000a81548173ffffffffffffffffffffffffffffffffffffffff021916908373ffffffffffffffffffffffffffffffffffffffff160217905550808273ffffffffffffffffffffffffffffffffffffffff168473ffffffffffffffffffffffffffffffffffffffff167fddf252ad1be2c89b69c2b068fc378daa952ba7f163c4a11628f55a4df523b3ef60405160405180910390a4505050565b600080fd5b600073ffffffffffffffffffffffffffffffffffffffff82169050919050565b60006104e2826104b7565b9050919050565b6104f2816104d7565b81146104fd57600080fd5b50565b60008135905061050f816104e9565b92915050565b6000819050919050565b61052881610515565b811461053357600080fd5b50565b6000813590506105458161051f565b92915050565b600080600060608486031215610564576105636104b2565b5b600061057286828701610500565b935050602061058386828701610500565b925050604061059486828701610536565b9150509250925092565b6000602082840312156105b4576105b36104b2565b5b60006105c284828501610536565b91505092915050565b6105d4816104d7565b82525050565b60006020820190506105ef60008301846105cb565b92915050565b60006020828403121561060b5761060a6104b2565b5b600061061984828501610500565b91505092915050565b61062b81610515565b82525050565b60006020820190506106466000830184610622565b92915050565b600082825260208201905092915050565b7f4164647265737320646f6573206e6f7420657869737400000000000000000000600082015250565b600061069360168361064c565b915061069e8261065d565b602082019050919050565b600060208201905081810360008301526106c281610686565b9050919050565b7f416464726573732063616e6e6f742062652061207a65726f2061646472657373600082015250565b60006106ff60208361064c565b915061070a826106c9565b602082019050919050565b6000602082019050818103600083015261072e816106f2565b9050919050565b7f4572726f202d20455243373231205472616e7366657220746f207a65726f206160008201527f6464726573730000000000000000000000000000000000000000000000000000602082015250565b600061079160268361064c565b915061079c82610735565b604082019050919050565b600060208201905081810360008301526107c081610784565b9050919050565b7f796f7520646f206e6f74206f776e2074686973204e4654000000000000000000600082015250565b60006107fd60178361064c565b9150610808826107c7565b602082019050919050565b6000602082019050818103600083015261082c816107f0565b9050919050565b7f4e487b7100000000000000000000000000000000000000000000000000000000600052601160045260246000fd5b600061086d82610515565b915061087883610515565b92508282101561088b5761088a610833565b5b828203905092915050565b60006108a182610515565b91506108ac83610515565b9250827fffffffffffffffffffffffffffffffffffffffffffffffffffffffffffffffff038211156108e1576108e0610833565b5b82820190509291505056fea26469706673582212209a1fa7fbf1d523ed2aed401dba4c675909dd6bd64f1b48aee8be6470d98e607964736f6c634300080c0033",
  "immutableReferences": {},
  "source": "// SPDX-License-Identifier: MIT\npragma solidity ^0.8.0;\n\n    /*\n    building out the minting function\n    1. NFT to point to an address\n    2. Keep track of the tokenids\n    3. Keep track of token owner addresses to token ids\n    4. keep track of how many tokens an owner address has\n    5. Emit and logs (event that emits a transfer log) - contract address, where is it minted to, the id\n    */\n\ncontract ERC721{\n\n    //Event transfer to keep track of minting token\n    event Transfer(\n        address indexed from, \n        address indexed to, \n        uint256 indexed tokenId);\n\n    //Mapping from token id to owner\n    mapping(uint256 => address) private _tokenOwner; \n\n    //Mapping from owner to number of owned tokens\n    mapping(address => uint256) private _OwnedTokensCount;\n\n    //Mapping from tokenID to approve addresses\n    mapping(uint256 => address) private _tokenApprovals;\n\n\n    // @notice Count all NFTs assigned to an owner\n    // @dev NFTs assigned to the zero address are considered invalid, and this\n    //  function throws for queries about the zero address.\n    // @param _owner An address for whom to query the balance\n    // @return The number of NFTs owned by `_owner`, possibly zero\n    function balanceOf(address _owner) public view returns (uint256){\n        require(_owner != address(0), \"Address cannot be a zero address\");\n        return _OwnedTokensCount[_owner];\n    }\n\n    // @notice Find the owner of an NFT\n    // @dev NFTs assigned to zero address are considered invalid, and queries\n    //  about them do throw.\n    // @param _tokenId The identifier for an NFT\n    // @return The address of the owner of the NFT\n    function ownerOf(uint256 _tokenId) public view returns (address){\n        address owner = _tokenOwner[_tokenId];\n        require(owner != address(0), \"Address does not exist\");\n        return owner;\n    }\n\n\n    function _exists(uint256 tokenId) internal view returns(bool){\n        //setting the address from tokenOwner at the tokenId\n        address owner = _tokenOwner[tokenId];\n        //return if the adress is not 0\n        return owner != address(0);\n    }\n\n    //Minting function\n    function _mint(address to, uint256 tokenId) internal virtual{\n        //requires that the address isnt zero\n        require(to != address(0),'ERC721: minting to the zero address');\n        //requires that the token does not exisit\n        require(!_exists(tokenId), 'ERC721: token already minted');\n        //Adding a new address with a token id for minting\n        _tokenOwner[tokenId] = to;\n        //Keeping each address that is minting\n        _OwnedTokensCount[to] += 1;\n\n        emit Transfer(address(0), to, tokenId);\n    }\n\n    /// @notice Transfer ownership of an NFT -- THE CALLER IS RESPONSIBLE\n    ///  TO CONFIRM THAT `_to` IS CAPABLE OF RECEIVING NFTS OR ELSE\n    ///  THEY MAY BE PERMANENTLY LOST\n    /// @dev Throws unless `msg.sender` is the current owner, an authorized\n    ///  operator, or the approved address for this NFT. Throws if `_from` is\n    ///  not the current owner. Throws if `_to` is the zero address. Throws if\n    ///  `_tokenId` is not a valid NFT.\n    /// @param _from The current owner of the NFT\n    /// @param _to The new owner\n    /// @param _tokenId The NFT to transfer\n    \n    function _transferFrom(address _from, address _to, uint256 _tokenId) public payable{\n        require(_to != address(0), \"Erro - ERC721 Transfer to zero address\");\n        require(ownerOf(_tokenId) == _from, \"you do not own this NFT\");\n\n        _OwnedTokensCount[_from] -= 1;\n        _OwnedTokensCount[_to] += 1;\n\n        _tokenOwner[_tokenId] = _to;\n\n        emit Transfer(_from, _to, _tokenId);\n    }\n\n    function transferFrom(address _from, address _to, uint256 _tokenId) public payable{\n        _transferFrom(_from, _to, _tokenId);\n    }\n\n}\n\n// function that will clear the NFT",
  "sourcePath": "/Users/tsairenkun/Desktop/Blockchain_sol/nft-marketplace-starter-kit-main 2/src/contracts/ERC721.sol",
  "compiler": {
    "name": "solc",
    "version": "0.8.12+commit.f00d7308.Emscripten.clang"
  },
  "schemaVersion": "3.4.4",
  "updatedAt": "2022-02-21T13:54:44.960Z",
  "devdoc": {
    "kind": "dev",
    "methods": {
      "_transferFrom(address,address,uint256)": {
        "details": "Throws unless `msg.sender` is the current owner, an authorized  operator, or the approved address for this NFT. Throws if `_from` is  not the current owner. Throws if `_to` is the zero address. Throws if  `_tokenId` is not a valid NFT.",
        "params": {
          "_from": "The current owner of the NFT",
          "_to": "The new owner",
          "_tokenId": "The NFT to transfer"
        }
      }
    },
    "version": 1
  },
  "userdoc": {
    "kind": "user",
    "methods": {
      "_transferFrom(address,address,uint256)": {
        "notice": "Transfer ownership of an NFT -- THE CALLER IS RESPONSIBLE  TO CONFIRM THAT `_to` IS CAPABLE OF RECEIVING NFTS OR ELSE  THEY MAY BE PERMANENTLY LOST"
      }
    },
    "version": 1
  }
}