{
  "contractName": "KryptoBird",
  "abi": [
    {
      "inputs": [],
      "stateMutability": "nonpayable",
      "type": "constructor"
    },
    {
      "anonymous": false,
      "inputs": [
        {
          "indexed": true,
          "internalType": "address",
          "name": "from",
          "type": "address"
        },
        {
          "indexed": true,
          "internalType": "address",
          "name": "to",
          "type": "address"
        },
        {
          "indexed": true,
          "internalType": "uint256",
          "name": "tokenId",
          "type": "uint256"
        }
      ],
      "name": "Transfer",
      "type": "event"
    },
    {
      "inputs": [
        {
          "internalType": "address",
          "name": "_owner",
          "type": "address"
        }
      ],
      "name": "balanceOf",
      "outputs": [
        {
          "internalType": "uint256",
          "name": "",
          "type": "uint256"
        }
      ],
      "stateMutability": "view",
      "type": "function",
      "constant": true
    },
    {
      "inputs": [
        {
          "internalType": "uint256",
          "name": "",
          "type": "uint256"
        }
      ],
      "name": "kryptoBirdz",
      "outputs": [
        {
          "internalType": "string",
          "name": "",
          "type": "string"
        }
      ],
      "stateMutability": "view",
      "type": "function",
      "constant": true
    },
    {
      "inputs": [],
      "name": "name",
      "outputs": [
        {
          "internalType": "string",
          "name": "",
          "type": "string"
        }
      ],
      "stateMutability": "view",
      "type": "function",
      "constant": true
    },
    {
      "inputs": [
        {
          "internalType": "uint256",
          "name": "_tokenId",
          "type": "uint256"
        }
      ],
      "name": "ownerOf",
      "outputs": [
        {
          "internalType": "address",
          "name": "",
          "type": "address"
        }
      ],
      "stateMutability": "view",
      "type": "function",
      "constant": true
    },
    {
      "inputs": [],
      "name": "symbol",
      "outputs": [
        {
          "internalType": "string",
          "name": "",
          "type": "string"
        }
      ],
      "stateMutability": "view",
      "type": "function",
      "constant": true
    },
    {
      "inputs": [
        {
          "internalType": "uint256",
          "name": "_index",
          "type": "uint256"
        }
      ],
      "name": "tokenByIndex",
      "outputs": [
        {
          "internalType": "uint256",
          "name": "",
          "type": "uint256"
        }
      ],
      "stateMutability": "view",
      "type": "function",
      "constant": true
    },
    {
      "inputs": [
        {
          "internalType": "address",
          "name": "_owner",
          "type": "address"
        },
        {
          "internalType": "uint256",
          "name": "_index",
          "type": "uint256"
        }
      ],
      "name": "tokenOfOwnerByIndex",
      "outputs": [
        {
          "internalType": "uint256",
          "name": "",
          "type": "uint256"
        }
      ],
      "stateMutability": "view",
      "type": "function",
      "constant": true
    },
    {
      "inputs": [],
      "name": "totalSupply",
      "outputs": [
        {
          "internalType": "uint256",
          "name": "",
          "type": "uint256"
        }
      ],
      "stateMutability": "view",
      "type": "function",
      "constant": true
    },
    {
      "inputs": [
        {
          "internalType": "string",
          "name": "_kryptoBird",
          "type": "string"
        }
      ],
      "name": "mint",
      "outputs": [],
      "stateMutability": "nonpayable",
      "type": "function"
    }
  ],
  "bytecode": "0x60806040523480156200001157600080fd5b506040518060400160405280600a81526020017f4b727970746f62697264000000000000000000000000000000000000000000008152506040518060400160405280600681526020017f4b424952445a00000000000000000000000000000000000000000000000000008152508181816000908051906020019062000098929190620000bc565b508060019080519060200190620000b1929190620000bc565b5050505050620001d1565b828054620000ca906200019b565b90600052602060002090601f016020900481019282620000ee57600085556200013a565b82601f106200010957805160ff19168380011785556200013a565b828001600101855582156200013a579182015b82811115620001395782518255916020019190600101906200011c565b5b5090506200014991906200014d565b5090565b5b80821115620001685760008160009055506001016200014e565b5090565b7f4e487b7100000000000000000000000000000000000000000000000000000000600052602260045260246000fd5b60006002820490506001821680620001b457607f821691505b60208210811415620001cb57620001ca6200016c565b5b50919050565b61141f80620001e16000396000f3fe608060405234801561001057600080fd5b50600436106100935760003560e01c80636352211e116100665780636352211e1461013457806370a082311461016457806393ab6e561461019457806395d89b41146101c4578063d85d3d27146101e257610093565b806306fdde031461009857806318160ddd146100b65780632f745c59146100d45780634f6ccce714610104575b600080fd5b6100a06101fe565b6040516100ad9190610bfd565b60405180910390f35b6100be610290565b6040516100cb9190610c38565b60405180910390f35b6100ee60048036038101906100e99190610cf1565b61029d565b6040516100fb9190610c38565b60405180910390f35b61011e60048036038101906101199190610d31565b61034d565b60405161012b9190610c38565b60405180910390f35b61014e60048036038101906101499190610d31565b6103b4565b60405161015b9190610d6d565b60405180910390f35b61017e60048036038101906101799190610d88565b610466565b60405161018b9190610c38565b60405180910390f35b6101ae60048036038101906101a99190610d31565b61051e565b6040516101bb9190610bfd565b60405180910390f35b6101cc6105ca565b6040516101d99190610bfd565b60405180910390f35b6101fc60048036038101906101f79190610eea565b61065c565b005b60606000805461020d90610f62565b80601f016020809104026020016040519081016040528092919081815260200182805461023990610f62565b80156102865780601f1061025b57610100808354040283529160200191610286565b820191906000526020600020905b81548152906001019060200180831161026957829003601f168201915b5050505050905090565b6000600480549050905090565b60006102a883610466565b82106102e9576040517f08c379a00000000000000000000000000000000000000000000000000000000081526004016102e090610fe0565b60405180910390fd5b600660008473ffffffffffffffffffffffffffffffffffffffff1673ffffffffffffffffffffffffffffffffffffffff168152602001908152602001600020828154811061033a57610339611000565b5b9060005260206000200154905092915050565b6000610357610290565b821015610399576040517f08c379a00000000000000000000000000000000000000000000000000000000081526004016103909061107b565b60405180910390fd5b60056000838152602001908152602001600020549050919050565b6000806002600084815260200190815260200160002060009054906101000a900473ffffffffffffffffffffffffffffffffffffffff169050600073ffffffffffffffffffffffffffffffffffffffff168173ffffffffffffffffffffffffffffffffffffffff16141561045d576040517f08c379a0000000000000000000000000000000000000000000000000000000008152600401610454906110e7565b60405180910390fd5b80915050919050565b60008073ffffffffffffffffffffffffffffffffffffffff168273ffffffffffffffffffffffffffffffffffffffff1614156104d7576040517f08c379a00000000000000000000000000000000000000000000000000000000081526004016104ce90611153565b60405180910390fd5b600360008373ffffffffffffffffffffffffffffffffffffffff1673ffffffffffffffffffffffffffffffffffffffff168152602001908152602001600020549050919050565b6008818154811061052e57600080fd5b90600052602060002001600091509050805461054990610f62565b80601f016020809104026020016040519081016040528092919081815260200182805461057590610f62565b80156105c25780601f10610597576101008083540402835291602001916105c2565b820191906000526020600020905b8154815290600101906020018083116105a557829003601f168201915b505050505081565b6060600180546105d990610f62565b80601f016020809104026020016040519081016040528092919081815260200182805461060590610f62565b80156106525780601f1061062757610100808354040283529160200191610652565b820191906000526020600020905b81548152906001019060200180831161063557829003601f168201915b5050505050905090565b60098160405161066c91906111af565b908152602001604051809103902060009054906101000a900460ff16156106c8576040517f08c379a00000000000000000000000000000000000000000000000000000000081526004016106bf90611212565b60405180910390fd5b600881908060018154018082558091505060019003906000526020600020016000909190919091509080519060200190610703929190610ac1565b50600060016008805490506107189190611261565b9050610724338261075f565b600160098360405161073691906111af565b908152602001604051809103902060006101000a81548160ff0219169083151502179055505050565b6107698282610780565b61077281610942565b61077c828261098b565b5050565b600073ffffffffffffffffffffffffffffffffffffffff168273ffffffffffffffffffffffffffffffffffffffff1614156107f0576040517f08c379a00000000000000000000000000000000000000000000000000000000081526004016107e790611307565b60405180910390fd5b6107f981610a4f565b15610839576040517f08c379a000000000000000000000000000000000000000000000000000000000815260040161083090611373565b60405180910390fd5b816002600083815260200190815260200160002060006101000a81548173ffffffffffffffffffffffffffffffffffffffff021916908373ffffffffffffffffffffffffffffffffffffffff1602179055506001600360008473ffffffffffffffffffffffffffffffffffffffff1673ffffffffffffffffffffffffffffffffffffffff16815260200190815260200160002060008282546108db9190611393565b92505081905550808273ffffffffffffffffffffffffffffffffffffffff16600073ffffffffffffffffffffffffffffffffffffffff167fddf252ad1be2c89b69c2b068fc378daa952ba7f163c4a11628f55a4df523b3ef60405160405180910390a45050565b6004805490506005600083815260200190815260200160002081905550600481908060018154018082558091505060019003906000526020600020016000909190919091505550565b600660008373ffffffffffffffffffffffffffffffffffffffff1673ffffffffffffffffffffffffffffffffffffffff168152602001908152602001600020819080600181540180825580915050600190039060005260206000200160009091909190915055600660008373ffffffffffffffffffffffffffffffffffffffff1673ffffffffffffffffffffffffffffffffffffffff1681526020019081526020016000208054905060076000838152602001908152602001600020819055505050565b6000806002600084815260200190815260200160002060009054906101000a900473ffffffffffffffffffffffffffffffffffffffff169050600073ffffffffffffffffffffffffffffffffffffffff168173ffffffffffffffffffffffffffffffffffffffff161415915050919050565b828054610acd90610f62565b90600052602060002090601f016020900481019282610aef5760008555610b36565b82601f10610b0857805160ff1916838001178555610b36565b82800160010185558215610b36579182015b82811115610b35578251825591602001919060010190610b1a565b5b509050610b439190610b47565b5090565b5b80821115610b60576000816000905550600101610b48565b5090565b600081519050919050565b600082825260208201905092915050565b60005b83811015610b9e578082015181840152602081019050610b83565b83811115610bad576000848401525b50505050565b6000601f19601f8301169050919050565b6000610bcf82610b64565b610bd98185610b6f565b9350610be9818560208601610b80565b610bf281610bb3565b840191505092915050565b60006020820190508181036000830152610c178184610bc4565b905092915050565b6000819050919050565b610c3281610c1f565b82525050565b6000602082019050610c4d6000830184610c29565b92915050565b6000604051905090565b600080fd5b600080fd5b600073ffffffffffffffffffffffffffffffffffffffff82169050919050565b6000610c9282610c67565b9050919050565b610ca281610c87565b8114610cad57600080fd5b50565b600081359050610cbf81610c99565b92915050565b610cce81610c1f565b8114610cd957600080fd5b50565b600081359050610ceb81610cc5565b92915050565b60008060408385031215610d0857610d07610c5d565b5b6000610d1685828601610cb0565b9250506020610d2785828601610cdc565b9150509250929050565b600060208284031215610d4757610d46610c5d565b5b6000610d5584828501610cdc565b91505092915050565b610d6781610c87565b82525050565b6000602082019050610d826000830184610d5e565b92915050565b600060208284031215610d9e57610d9d610c5d565b5b6000610dac84828501610cb0565b91505092915050565b600080fd5b600080fd5b7f4e487b7100000000000000000000000000000000000000000000000000000000600052604160045260246000fd5b610df782610bb3565b810181811067ffffffffffffffff82111715610e1657610e15610dbf565b5b80604052505050565b6000610e29610c53565b9050610e358282610dee565b919050565b600067ffffffffffffffff821115610e5557610e54610dbf565b5b610e5e82610bb3565b9050602081019050919050565b82818337600083830152505050565b6000610e8d610e8884610e3a565b610e1f565b905082815260208101848484011115610ea957610ea8610dba565b5b610eb4848285610e6b565b509392505050565b600082601f830112610ed157610ed0610db5565b5b8135610ee1848260208601610e7a565b91505092915050565b600060208284031215610f0057610eff610c5d565b5b600082013567ffffffffffffffff811115610f1e57610f1d610c62565b5b610f2a84828501610ebc565b91505092915050565b7f4e487b7100000000000000000000000000000000000000000000000000000000600052602260045260246000fd5b60006002820490506001821680610f7a57607f821691505b60208210811415610f8e57610f8d610f33565b5b50919050565b7f4f776e657220696e646578206973206f7574206f6620626f756e647300000000600082015250565b6000610fca601c83610b6f565b9150610fd582610f94565b602082019050919050565b60006020820190508181036000830152610ff981610fbd565b9050919050565b7f4e487b7100000000000000000000000000000000000000000000000000000000600052603260045260246000fd5b7f476c6f62616c20696e646578206f7574206f6620626f756e6473000000000000600082015250565b6000611065601a83610b6f565b91506110708261102f565b602082019050919050565b6000602082019050818103600083015261109481611058565b9050919050565b7f4164647265737320646f6573206e6f7420657869737400000000000000000000600082015250565b60006110d1601683610b6f565b91506110dc8261109b565b602082019050919050565b60006020820190508181036000830152611100816110c4565b9050919050565b7f416464726573732063616e6e6f742062652061207a65726f2061646472657373600082015250565b600061113d602083610b6f565b915061114882611107565b602082019050919050565b6000602082019050818103600083015261116c81611130565b9050919050565b600081905092915050565b600061118982610b64565b6111938185611173565b93506111a3818560208601610b80565b80840191505092915050565b60006111bb828461117e565b915081905092915050565b7f4572726f72202d206269726420616c7265616479206578697369747300000000600082015250565b60006111fc601c83610b6f565b9150611207826111c6565b602082019050919050565b6000602082019050818103600083015261122b816111ef565b9050919050565b7f4e487b7100000000000000000000000000000000000000000000000000000000600052601160045260246000fd5b600061126c82610c1f565b915061127783610c1f565b92508282101561128a57611289611232565b5b828203905092915050565b7f4552433732313a206d696e74696e6720746f20746865207a65726f206164647260008201527f6573730000000000000000000000000000000000000000000000000000000000602082015250565b60006112f1602383610b6f565b91506112fc82611295565b604082019050919050565b60006020820190508181036000830152611320816112e4565b9050919050565b7f4552433732313a20746f6b656e20616c7265616479206d696e74656400000000600082015250565b600061135d601c83610b6f565b915061136882611327565b602082019050919050565b6000602082019050818103600083015261138c81611350565b9050919050565b600061139e82610c1f565b91506113a983610c1f565b9250827fffffffffffffffffffffffffffffffffffffffffffffffffffffffffffffffff038211156113de576113dd611232565b5b82820190509291505056fea26469706673582212203fa69c60cbe39a5c0fbec71b16da6e7b6018ad706c8cf8a5853db09c0b5ede0d64736f6c634300080c0033",
  "immutableReferences": {},
  "source": "// SPDX-License-Identifier: MIT\npragma solidity ^0.8.0;\n\nimport './ERC721Connector.sol';\n\n\ncontract KryptoBird is ERC721Connector {\n\n    //array to store our nfts\n    string [] public kryptoBirdz;\n\n    mapping(string => bool) _kryptoBirdzExists;\n\n    function mint(string memory _kryptoBird) public {\n        require(!_kryptoBirdzExists[_kryptoBird], \"Error - bird already exisits\");\n        kryptoBirdz.push(_kryptoBird);\n        uint _id = kryptoBirdz.length - 1;\n\n        _mint(msg.sender, _id);\n\n        _kryptoBirdzExists[_kryptoBird] = true;\n    }\n\n    //initialize this contract to inherit name and symbol from erc721metadata\n   constructor() ERC721Connector('Kryptobird', 'KBIRDZ'){\n\n   }\n}",
  "sourcePath": "/Users/tsairenkun/Desktop/Blockchain_sol/nft-marketplace-starter-kit-main 2/src/contracts/KryptoBirdz.sol",
  "compiler": {
    "name": "solc",
    "version": "0.8.12+commit.f00d7308.Emscripten.clang"
  },
  "schemaVersion": "3.4.4",
  "updatedAt": "2022-02-18T11:28:16.651Z",
  "networkType": "ethereum",
  "devdoc": {
    "kind": "dev",
    "methods": {},
    "version": 1
  },
  "userdoc": {
    "kind": "user",
    "methods": {},
    "version": 1
  }
}